:100000003BC0ACC154C053C052C051C050C04FC01F
:100010004EC04DC04CC04BC04AC049C048C047C08C
:1000200046C045C044C0040309041C0377007700A0
:1000300077002E00660069007300630068006C00A2
:100040002E00640065000E0355005300420061005D
:100050007300700012011001FF000008C016DC05DB
:1000600003010102000109021200010100801909C7
:10007000040000000000000011241FBECFE5D4E002
:10008000DEBFCDBF10E0A0E6B0E0E6ECFEE002C0CF
:1000900005900D92A236B107D9F710E0A2E6B0E0C4
:1000A00001C01D92A73AB107E1F7F7D60AC7A8CF5A
:1000B0001F93CF93DF9360918800635067FD13C057
:1000C00080918500CCE0D0E0C81BD109C457DF4F38
:1000D000809184008D3209F462C08091620087FDB6
:1000E00086C0109288008091600084FF4AC06091B1
:1000F00061006F3F09F445C0693070F1685060934A
:1001000061008091780098E889278093780068E002
:100110008091620087FD90C04091860050918700D9
:1001200086FF6FC0862F8150C82FD0E09E012658D1
:100130003F4FFA01A9E7B0E084918D933196A21761
:10014000B307D1F72196C40FD51FD0938700C09372
:100150008600162F1C5F0BC0109261008091780002
:1001600098E8892780937800662391F614E089E760
:1001700090E0F0D01C3019F08FEF80936100109365
:10018000600094E180B3847131F49150D9F71092FA
:10019000890010928300DF91CF911F9108956830FC
:1001A00009F09FCF83EC809378008AE5809360000C
:1001B0001092620088818076A1F59A811092810068
:1001C0008981882309F044C01092820021E830E040
:1001D00082E030938700209386009F81992321F449
:1001E0009E81981708F4892F809361007ACFCE0101
:1001F000B5D58F3FE1F1882309F473CF10926100E8
:1002000070CFDA01862F8150C82FD0E09E0126588A
:100210003F4FE9E7F0E08D918193E217F307D9F7BB
:1002200091CFCE0116D48F3FC1F6988197FD29C09A
:1002300090E890936200D8CF89E790E038D5682F96
:10024000893008F460C08FEF809361001EE197CF82
:10025000853089F08630B9F0883059F1893069F1FC
:100260008A3009F440C021E830E080E0B2CF8EE16E
:100270008093600036CF9093890021E830E080E0E1
:10028000A8CF8E81D5CF8B81813029F18230D9F0F2
:10029000833029F080E090E4909362009ECF992310
:1002A00031F586E290E0909387008093860084E0A9
:1002B000F2CF2BE830E081E08CCF90938B0021E8E7
:1002C00030E080E086CF86E690E0909387008093D0
:1002D000860082E1E0CF84E590E0909387008093F0
:1002E000860082E1D8CF21E830E081E072CF913002
:1002F00069F0923079F686E490E0909387008093DD
:1003000086008EE0C8CF182F1C5F31CF8AE290E0C4
:1003100090938700809386008CE1BDCF85B7836082
:1003200085BF8BB780648BBF0895A82FB92F80E05D
:1003300090E041E050EA60956F5F58F42D9138EFFE
:1003400082279795879510F0842795273F5FC8F3FC
:10035000F3CF0895EADF8D939D930895CF93CFB7A0
:10036000CF93C395849BE9F7849B09C0849B07C006
:10037000849B05C0849B03C0849B01C0A1C0DF9304
:10038000C0918500DD27C457DF4F849B02C0DF91F9
:10039000EBCF2F930F931F9300B32FEF04FB20F9A4
:1003A0004F933F9310B34FEF012704FB21F93BE03C
:1003B00031C04E7F012F10B3216028C0102F4D7F18
:1003C0002260000000B329C04B7F2460012F000091
:1003D00010B32BC010B3477F28602AC04F7E00B3F4
:1003E00020612CC04F7D10B320622FC04F7B00B323
:1003F000206432C0422700B349934FEF000010271A
:1004000014FB20F910B31471C9F1297F91F201276F
:1004100004FB21F900B3237F89F2315058F11027F2
:1004200014FB22F910B3277E79F2012704FB23F98C
:100430002F7C81F200B3102714FB24F92F7971F27D
:1004400000C010B3012704FB25F92F7359F200C037
:1004500000B3102714FB26F9223040F200C010B37D
:10046000012704FB27F9243028F64F77206810B3C2
:100470000000F9CF10E41ABF002717C03B50319598
:10048000C31BD04010E41ABF0881033CE9F00B34D1
:10049000D9F0209183001981110F1213EDCF093685
:1004A00041F10D3211F0013E39F700938A003F917E
:1004B0004F911F910F912F91DF91CAB7C6FD51CF78
:1004C000CF91CFBFCF91189520918A00222379F345
:1004D00010918800112311F5343012F13093880007
:1004E00020938400109185003BE0311B3093850000
:1004F00017C00091880001308CF40AE5309160004B
:1005000034FD10C000936000C8E7D0E00FC027950D
:10051000A8F45150A9F4220F0000F9CF4AE503C016
:1005200042ED01C0432FC4E1D0E032E011B31461C9
:10053000949A11BB02B320E414E15F93012756E0C3
:1005400002BB279520F4515021F4220FF9CF012747
:1005500056E000003B5A02BBD0F2279528F45150D8
:1005600029F4220F0000F9CF012756E0279502BB9E
:1005700020F4515021F4220FF9CF012756E02991A0
:10058000332302BB21F60B7E10918900110FC65157
:10059000D04002BB11F01093830010E41ABF006139
:1005A00011B31B7E402F4B7E5F9100C000C002BB89
:1005B00011BB42BB7CCF582F48E080E02091A600C1
:1005C00057FD15C0C398880FB4998F5FC59A32B78D
:1005D00092B7931B9217E0F3C59832B792B7931B6B
:1005E0009217E0F3415029F0550F57FFEBCFC39A14
:1005F000EACF08958FB9779BFECF8FB10895809190
:10060000A5008DB98091A2008EB908958823B1F01C
:100610008830C8F52BED32E03093A4002093A3007E
:10062000843009F18530B8F0863011F1863018F148
:100630008730A9F483E08093A60008958AEF92E0C2
:100640009093A4008093A30082E58093A50081E0AD
:100650008093A2000895823091F0833041F080ECC5
:100660008093A600089588E18093A600089580E312
:100670008093A60008958CE08093A600089580E6FC
:100680008093A60008952AEF32E03093A4002093CF
:10069000A3001092A200893041F08A3050F48830D3
:1006A00099F683E58093A500089582E58093A500DF
:1006B00008958B3029F08C3039F681E08093A200C8
:1006C00081E58093A500089522B79091A60082B796
:1006D000821B8917E0F3089587B38C6287BBC298A9
:1006E000C59822B79091A60082B7821B8917E0F3C4
:1006F000C29A22B782B7821B8917E0F3C298809111
:10070000A3009091A40022E08A3F920709F0089587
:100710008091A5008DB98091A2008EB9089587B30C
:10072000837D87BB88B3837D88BB1DB808950F93F5
:100730001F9310E2E091A300F091A4008CEA0995C8
:10074000E091A300F091A40083E50995E091A30056
:10075000F091A40080E00995082FE091A300F091AA
:10076000A40080E00995033521F11DB8C59A22B790
:100770009091A60082B7821B8917E0F3C59822B733
:1007800082B7821B8917E0F3E091A300F091A400E7
:1007900082E0EA3FF80731F0115081F681E01F91C5
:1007A0000F9108958091A5008DB98091A2008EB916
:1007B000F3CF80E01F910F910895EF92FF920F9376
:1007C0001F937B018C01862F8170880F880F880F03
:1007D000E091A300F091A40080620995D801C701BF
:1007E00039E0B695A795979587953A95D1F7E09119
:1007F000A300F091A4000995D801C701B695A7956B
:1008000097958795E091A300F091A4000995E09158
:10081000A300F091A40080E009951F910F91FF9033
:10082000EF900895CF92DF92EF92FF920F931F9374
:10083000DF93CF930F92CDB7DEB77B018C01D42E1F
:10084000862F8170880F880F880FE091A300F091A8
:10085000A400806429830995C801B701E9E0969551
:10086000879577956795EA95D1F7E091A300F09188
:10087000A400862F0995C801B701969587957795AD
:100880006795E091A300F091A400862F0995E0916F
:10089000A300F091A4008D2D099529812223A9F0B0
:1008A0008D2D8F37E9F0C2B64EE1D42EC801B701C5
:1008B00084DF8F3751F482B78C198D3310F0C2B6B4
:1008C000DA94DD2099F781E001C080E00F90CF91AC
:1008D000DF911F910F91FF90EF90DF90CF900895DF
:1008E0008FE0ABD080E0F2CFCF92DF92EF92FF9219
:1008F0000F931F93DF93CF930F92CDB7DEB77B019A
:100900008C01E091A300F091A4008CE44983099547
:10091000D801C70139E0B695A795979587953A957F
:10092000D1F7E091A300F091A4000995D801C70187
:10093000B695A79597958795E091A300F091A400AF
:100940000995E091A300F091A40080E00995498108
:100950004F3FE9F0C2B6FEE1DF2EC801B7012DDF3F
:100960008F3F99F482B78C198D3310F0C2B6DA94A8
:10097000DD2099F781E00F90CF91DF911F910F91CA
:10098000FF90EF90DF90CF90089580E0F4CF8FE05C
:1009900054D080E0F0CF1F93DF93CF930F92CDB769
:1009A000DEB7182FE091A300F091A40080EA9983AC
:1009B0000995E091A300F091A4009981892F0995F0
:1009C000E091A300F091A400812F0995E091A3008C
:1009D000F091A40080E009950F90CF91DF911F91D5
:1009E00008951F93DF93CF9300D0CDB7DEB7182FB4
:1009F000E091A300F091A40080EC6A8399830995AB
:100A0000E091A300F091A4009981892F0995E091CC
:100A1000A300F091A400812F0995E091A300F0912B
:100A2000A4006A81862F09958EE107D080E00F909F
:100A30000F90CF91DF911F910895882349F030E006
:100A400022B792B7921B9C33E0F33F5F3817C0F395
:100A50000895CF93DF93EC0189818130E1F08230FA
:100A600009F49BC0833009F44EC08430F9F087301C
:100A700009F46EC0853009F4FDC0863009F491C0D8
:100A8000883009F4CCC0893009F400C18A3009F4F7
:100A9000F6C080E02FC09A9B58C080916E00B6DDF2
:100AA00010926F00AB9818DE80E024C080916F0038
:100AB000882391F43B8120E08A8190E0822B932B64
:100AC000AA2797FDA095BA2F8093660090936700A0
:100AD000A0936800B09369003F8120E08E8190E090
:100AE000822B932B90936C0080936B0082E0809319
:100AF00063008FEF20E730E030938700209386007B
:100B0000DF91CF910895E091A300F091A4008A8134
:100B1000099580937000E091A300F091A4008B816F
:100B2000099580937100E091A300F091A4008C815D
:100B3000099580937200E091A300F091A4008D814B
:100B400009958093730084E0D5CF85E05FDDA8CF61
:100B500080916F00882391F43B8120E08A8190E0AE
:100B6000822B932BAA2797FDA095BA2F809366001E
:100B700090936700A0936800B09369003F8120E0E4
:100B80008E8190E0822B932B90936C0080936B006E
:100B900083E0809363008FEFADCFC1DDAB9A80E03F
:100BA000A9CF80916F00882391F43B8120E08A8156
:100BB00090E0822B932BAA2797FDA095BA2F8093C4
:100BC000660090936700A0936800B09369003C8131
:100BD0008D81282F2F7020936D0090E0807F907082
:100BE00082959295907F9827807F9827830F911DFB
:100BF000909365008093640020FF02C080936A0098
:100C00003F8120E08E8190E0822B932B90936C00AB
:100C100080936B0081E0809363008FEF6BCF8091B6
:100C20006F00882391F43B8120E08A8190E0822B41
:100C3000932BAA2797FDA095BA2F809366009093D7
:100C40006700A0936800B09369001092650010924D
:100C5000640010926D003F8120E08E8190E0822B35
:100C6000932B90936C0080936B0084E080936300DF
:100C70008FEF40CF5CDD8093700081E03BCF8A81B5
:100C800080936E001092700081E034CF81E08093F9
:100C90006F008A819B81AC81BD81809366009093B7
:100CA0006700A0936800B093690080E023CFEF92C3
:100CB000FF920F931F93CF93DF93082F292F162FA7
:100CC00030916300832F8250823048F01FEF812FD4
:100CD000DF91CF911F910F91FF90EF9008956623C0
:100CE00099F1609166007091670080916800909121
:100CF0006900E02EE7017E01F22EE7011EC0CB0164
:100D00004ADE888360916600709167008091680078
:100D1000909169006F5F7F4F8F4F9F4F6093660088
:100D20007093670080936800909369002196AE01EC
:100D3000401B411738F430916300323001F73DDD3C
:100D40008883E0CF183018F610926300812FDF916E
:100D5000CF911F910F91FF90EF900895EF92FF9226
:100D60000F931F93CF93DF93082F292F162F3091C6
:100D70006300313061F0343051F0FF24FA948F2D4C
:100D8000DF91CF911F910F91FF90EF900895112364
:100D900009F481C0609166007091670080916800DD
:100DA00090916900E02EE7017E01F22EE701FF2419
:100DB0004EC020916400309165002115310509F085
:100DC00050C0488121E02EDD80916B0090916C0035
:100DD000019790936C0080936B000097E1F4109260
:100DE000630080916D0081FF39C020916A0030E07E
:100DF00080916400909165002817390779F160911E
:100E00006600709167008091680090916900488148
:100E10006BDDFF24F3946091660070916700809110
:100E20006800909169006F5F7F4F8F4F9F4F609375
:100E30006600709367008093680090936900219624
:100E4000AE01401B411708F09ACF3091630031305A
:100E500009F4AFCFCB016881C4DDB6CFFF24F39492
:100E6000DACF488120E0DEDC80916A0081508093F7
:100E70006A00882309F0A8CF60916600709167002E
:100E8000809168009091690048812EDD8091640016
:100E900080936A0099CFFF2472CF80E882BB18BA92
:100EA0008CE085BB81B3846981BBA39A81B38B7EBF
:100EB00081BB979883E083BF31DA7894F9D8F8D86A
:060EC000FDCFF894FFCF06
:020EC6005AFFD1
:00000001FF
