:100000000C945D000C94D6010C947A000C947A0048
:100010000C947A000C947A000C947A000C947A0078
:100020000C947A000C947A000C947A000C947A0068
:100030000C947A000C947A000C947A000C947A0058
:100040000C947A000C947A000C947A000C947A0048
:100050000C947A000C947A000C947A000C947A0038
:100060000C947A000C947A00040309041C037700B2
:10007000770077002E006600690073006300680057
:100080006C002E00640065000E0355005300420012
:1000900061007300700012011001FF000008C0161B
:1000A000DC050301010200010902120001010080C8
:1000B0001909040000000000000011241FBECFEF4A
:1000C000D4E0DEBFCDBF11E0A0E0B1E0ECE3FFE0A3
:1000D00002C005900D92A230B107D9F711E0A2E05D
:1000E000B1E001C01D92A734B107E1F70E94870774
:1000F0000C949C070C9400001F93CF93DF936091A6
:100100002801635067FD13C080912501CCE0D0E049
:10011000C81BD109C45DDE4F809124018D3209F4E2
:1001200063C08091020187FD87C0109228018091F1
:10013000000184FF4BC0609101016F3F09F446C08C
:10014000693070F16850609301018091180198E85E
:1001500089278093180168E08091020187FD93C090
:10016000409126015091270186FF71C0862F815052
:10017000C82FD0E09E01265E3E4FFA01A9E1B1E012
:1001800084918D933196A217B307D1F72196C40FAE
:10019000D51FD0932701C0932601162F1C5F0BC0DB
:1001A000109201018091180198E889278093180125
:1001B000662391F614E089E191E00E94D2011C309F
:1001C00019F08FEF809301011093000194E189B140
:1001D000847131F49150D9F71092290110922301C2
:1001E000DF91CF911F910895683009F09ECF83EC85
:1001F000809318018AE580930001109202018881A2
:100200008076A9F59A81109221018981882309F0CD
:1002100047C01092220121E231E082E030932701B1
:10022000209326019F81992321F49E81981708F439
:10023000892F8093010179CFCE010E94E3068F3F81
:10024000F1F1882309F471CF109201016ECFDA0128
:10025000862F8150C82FD0E09E01265E3E4FE9E1F7
:10026000F1E08D918193E217F307D9F78FCFCE019B
:100270000E9457058F3FB1F6988197FD2AC090E8FC
:1002800090930201D6CF89E191E00E948A06682FFF
:10029000893008F460C08FEF809301011EE194CF94
:1002A000853089F08630B9F0883059F1893069F1AC
:1002B0008A3009F440C021E231E080E0AFCF8EE126
:1002C0008093000132CF9093290121E231E080E058
:1002D000A5CF8E81D4CF8B81813029F18230D9F0A6
:1002E000833029F080E090E4909302019BCF992322
:1002F00031F588E690E0909327018093260184E011
:10030000F2CF2BE231E081E089CF90932B0121E203
:1003100031E080E083CF88EA90E0909327018093DA
:10032000260182E1E0CF86E990E090932701809357
:10033000260182E1D8CF21E231E081E06FCF913018
:1003400069F0923079F688E890E0909327018093E5
:1003500026018EE0C8CF182F1C5F2DCF8CE690E0D1
:1003600090932701809326018CE1BDCFE9E6F0E070
:10037000808183608083E89A0895A82FB92F80E058
:1003800090E041E050EA60956F5F58F42D9138EFAE
:1003900082279795879510F0842795273F5FC8F3AC
:1003A000F3CF0895EADF8D939D930895CF93CFB750
:1003B000CF93C3954C9BE9F74C9B09C04C9B07C05E
:1003C0004C9B05C04C9B03C04C9B01C0A1C0DF935C
:1003D000C0912501DD27C45DDE4F4C9B02C0DF913B
:1003E000EBCF2F930F931F9309B12FEF04FB20F94D
:1003F0004F933F9319B14FEF012704FB21F93BE0E5
:1004000031C04E7F012F19B1216028C0102F4D7FC0
:100410002260000009B129C04B7F2460012F000039
:1004200019B12BC019B1477F28602AC04F7E09B18E
:1004300020612CC04F7D19B120622FC04F7B09B1C4
:10044000206432C0422709B149934FEF00001027C2
:1004500014FB20F919B11471C9F1297F91F2012718
:1004600004FB21F909B1237F89F2315058F110279B
:1004700014FB22F919B1277E79F2012704FB23F935
:100480002F7C81F209B1102714FB24F92F7971F226
:1004900000C019B1012704FB25F92F7359F200C0E0
:1004A00009B1102714FB26F9223040F200C019B11F
:1004B000012704FB27F9243028F64F77206819B16B
:1004C0000000F9CF11E01CBB002717C03B5031954D
:1004D000C31BD04011E01CBB0881033CE9F00B3486
:1004E000D9F0209123011981110F1213EDCF093694
:1004F00041F10D3211F0013E39F700932A013F918D
:100500004F911F910F912F91DF91CCB3C0FD51CF2F
:10051000CF91CFBFCF91189520912A01222379F353
:1005200010912801112311F5343012F13093280174
:1005300020932401109125013BE0311B30932501CC
:1005400017C00091280101308CF40AE530910001B8
:1005500034FD10C000930001C8E1D1E00FC0279521
:10056000A8F45150A9F4220F0000F9CF4AE503C0C6
:1005700042ED01C0432FC4E1D0E032E01AB1146172
:100580005C9A1AB90BB120E414E15F93012756E09D
:100590000BB9279520F4515021F4220FF9CF0127F0
:1005A00056E000003B5A0BB9D0F2279528F4515081
:1005B00029F4220F0000F9CF012756E027950BB947
:1005C00020F4515021F4220FF9CF012756E0299150
:1005D00033230BB921F60B7E10912901110FC6515F
:1005E000D0400BB911F01093230111E01CBB006146
:1005F0001AB11B7E402F4B7E5F9100C000C00BB92B
:100600001AB94BB97CCF582F48E080E020914601C1
:1006100057FD15C02B98880F1C998F5F2D9A36B502
:1006200096B5931B9217E0F32D9836B596B5931BAC
:100630009217E0F3415029F0550F57FFEBCF2B9A5B
:10064000EACF08958EBD0DB407FEFDCF8EB5089597
:10065000809145018CBD809142018DBD0895882314
:10066000B1F08830C8F523E033E0309344012093A3
:100670004301843009F18530B8F0863011F18630BD
:1006800018F18730A9F483E080934601089582E24F
:1006900093E0909344018093430182E58093450168
:1006A00081E0809342010895823091F0833041F0DF
:1006B00080EC80934601089588E180934601089577
:1006C00080E38093460108958CE08093460108956D
:1006D00080E680934601089522E233E0309344019E
:1006E0002093430110924201893041F08A3050F446
:1006F000883099F683E580934501089582E58093DB
:10070000450108958B3029F08C3039F681E08093D3
:10071000420181E580934501089526B590914601F7
:1007200086B5821B8917E0F3089584B18C6284B981
:100730002A982D9826B59091460186B5821B891777
:10074000E0F32A9A26B586B5821B8917E0F32A982A
:10075000809143019091440123E08232920709F095
:100760000895809145018CBD809142018DBD089511
:1007700084B1837D84B985B1837D85B91CBC08951E
:100780000F931F9310E2E0914301F09144018CEA32
:100790000995E0914301F091440183E50995E091C9
:1007A0004301F091440180E00995082FE091430155
:1007B000F091440180E00995033521F11CBC2D9A8C
:1007C00026B59091460186B5821B8917E0F32D98D6
:1007D00026B586B5821B8917E0F3E0914301F091BD
:1007E000440183E0E232F80731F0115081F681E0F4
:1007F0001F910F910895809145018CBD8091420118
:100800008DBDF3CF80E01F910F910895EF92FF927D
:100810000F931F937B018C01862F8170880F880FA7
:10082000880FE0914301F091440180620995D8015D
:10083000C70139E0B695A795979587953A95D1F771
:10084000E0914301F09144010995D801C701B695A3
:10085000A79597958795E0914301F09144010995FB
:10086000E0914301F091440180E009951F910F91BF
:10087000FF90EF900895CF92DF92EF92FF920F9347
:100880001F93DF93CF930F92CDB7DEB77B018C011F
:10089000D42E862F8170880F880F880FE091430136
:1008A000F0914401806429830995C801B701E9E00A
:1008B0009695879577956795EA95D1F7E0914301ED
:1008C000F0914401862F0995C801B7019695879547
:1008D00077956795E0914301F0914401862F099542
:1008E000E0914301F09144018D2D09952981222346
:1008F000B1F08D2D8F37F1F0C6B44EE1D42EC80182
:10090000B7010E9406048F3751F486B58C198D33D8
:1009100010F0C6B4DA94DD2091F781E001C080E0E8
:100920000F90CF91DF911F910F91FF90EF90DF908B
:10093000CF9008958FE00E944B0580E0F1CFCF92D9
:10094000DF92EF92FF920F931F93DF93CF930F925B
:10095000CDB7DEB77B018C01E0914301F0914401FA
:100960008CE449830995D801C70139E0B695A7956C
:10097000979587953A95D1F7E0914301F09144011D
:100980000995D801C701B695A79597958795E091E8
:100990004301F09144010995E0914301F091440134
:1009A00080E0099549814F3FF1F0C6B4FEE1DF2EAA
:1009B000C801B7010E9406048F3F99F486B58C19CF
:1009C0008D3310F0C6B4DA94DD2091F781E00F90FA
:1009D000CF91DF911F910F91FF90EF90DF90CF901B
:1009E000089580E0F4CF8FE00E944B0580E0EFCFC8
:1009F0001F93DF93CF930F92CDB7DEB7182FE091FF
:100A00004301F091440180EA99830995E091430103
:100A1000F09144019981892F0995E0914301F0916A
:100A20004401812F0995E0914301F091440180E058
:100A300009950F90CF91DF911F9108951F93DF9338
:100A4000CF9300D0CDB7DEB7182FE0914301F091DE
:100A5000440180EC6A8399830995E0914301F09108
:100A600044019981892F0995E0914301F091440156
:100A7000812F0995E0914301F09144016A81862F0D
:100A800009958EE10E944B0580E00F900F90CF9169
:100A9000DF911F910895882349F030E026B596B57F
:100AA000921B9C33E0F33F5F3817C0F30895CF9358
:100AB000DF93EC0189818130E1F0823009F49EC03E
:100AC000833009F450C0843009F1873009F471C0D3
:100AD000853009F401C1863009F495C0883009F4E5
:100AE000D0C0893009F405C18A3009F4FBC080E028
:100AF00031C0329B5AC080910E010E942F03109288
:100B00000F0143980E94950380E024C080910F015B
:100B1000882391F43B8120E08A8190E0822B932B03
:100B2000AA2797FDA095BA2F8093060190930701FD
:100B3000A0930801B09309013F8120E08E8190E0ED
:100B4000822B932B90930C0180930B0182E0809376
:100B500003018FEF20E131E030932701209326013C
:100B6000DF91CF910895E0914301F09144018A8192
:100B7000099580931001E0914301F09144018B812C
:100B8000099580931101E0914301F09144018C811A
:100B9000099580931201E0914301F09144018D8108
:100BA00009958093130184E0D5CF85E00E942F033F
:100BB000A6CF80910F01882391F43B8120E08A81A8
:100BC00090E0822B932BAA2797FDA095BA2F8093B4
:100BD000060190930701A0930801B09309013F819A
:100BE00020E08E8190E0822B932B90930C018093D8
:100BF0000B0183E0809303018FEFACCF0E94B80319
:100C0000439A80E0A7CF80910F01882391F43B8124
:100C100020E08A8190E0822B932BAA2797FDA09554
:100C2000BA2F8093060190930701A0930801B09317
:100C300009013C818D81282F2F7020930D0190E0B8
:100C4000807F907082959295907F9827807F9827DB
:100C5000830F911D909305018093040120FF02C032
:100C600080930A013F8120E08E8190E0822B932BBC
:100C700090930C0180930B0181E0809303018FEF2F
:100C800069CF80910F01882391F43B8120E08A8114
:100C900090E0822B932BAA2797FDA095BA2F8093E3
:100CA000060190930701A0930801B09309011092E7
:100CB00005011092040110920D013F8120E08E8108
:100CC00090E0822B932B90930C0180930B0184E096
:100CD000809303018FEF3ECF0E94C00380931001E9
:100CE00081E038CF8A8180930E011092100181E05B
:100CF00031CF81E080930F018A819B81AC81BD81DE
:100D00008093060190930701A0930801B093090115
:100D100080E020CFEF92FF920F931F93CF93DF934A
:100D2000082F292F162F30910301832F82508230F4
:100D300048F01FEF812FDF91CF911F910F91FF900E
:100D4000EF9008956623A9F1609106017091070163
:100D50008091080190910901E02EE7017E01F22EB9
:100D6000E7011FC0CB010E94F8048883609106014F
:100D70007091070180910801909109016F5F7F4F89
:100D80008F4F9F4F60930601709307018093080176
:100D9000909309012196AE01401B411740F4309118
:100DA00003013230F9F60E9406048883DFCF183041
:100DB00008F610920301812FDF91CF911F910F91BF
:100DC000FF90EF900895EF92FF920F931F93CF93B0
:100DD000DF93082F292F162F30910301313061F056
:100DE000343051F0FF24FA948F2DDF91CF911F9171
:100DF0000F91FF90EF900895112309F486C0609140
:100E00000601709107018091080190910901E02E7F
:100E1000E7017E01F22EE701FF2450C0209104017A
:100E2000309105012115310509F053C0488121E0B9
:100E30000E943B0480910B0190910C0101979093CB
:100E40000C0180930B010097E9F41092030180914B
:100E50000D0181FF3BC020910A0130E08091040127
:100E6000909105012817390789F160910601709169
:100E70000701809108019091090148810E949F0417
:100E8000FF24F3946091060170910701809108019D
:100E9000909109016F5F7F4F8F4F9F4F60930601C5
:100EA0007093070180930801909309012196AE0188
:100EB000401B411708F098CF30910301313009F4FD
:100EC000ADCFCB0168810E941E05B4CFFF24F394FF
:100ED000D9CF488120E00E943B0480910A018150D3
:100EE00080930A01882309F0A5CF609106017091D3
:100EF0000701809108019091090148810E949F0497
:100F00008091040180930A0195CFFF246DCF80E882
:100F10008BB915B88CE088B98AB184698AB93B9AD3
:100F20008AB18B7E8AB95F9883E085BD0E94B60145
:0C0F300078940E947C00FDCFF894FFCF65
:020F3C005AFF5A
:00000001FF
